:020000021000EC
:10FC00001124C4B714BEC1FD07C0C3FD0DD18CB50E
:10FC10008F7A8CBD8C2FCFD185E08093810082E0DC
:10FC20008093C00088E18093C10086E08093C20089
:10FC300080E18093C4008EE0ECD0579A86E020E308
:10FC40003CEF91E0309385002093840096BBB09BFD
:10FC5000FECF4F9AA8958150A9F7C0E0D0E001E00F
:10FC600021E1F22E13E0C7D0813469F4C4D0D82E3C
:10FC700093D182E8D81619F1E1E8DE1609F476C0CE
:10FC800083E0B2D07AC0823411F484E103C08534B9
:10FC900019F485E089D171C0853569F4ACD0C82FDD
:10FCA000AAD0D0E0D82B8D2F881F8827881F8BBF24
:10FCB000CC0FDD1F61C0863521F484E075D180E072
:10FCC000E0CF843609F03CC096D095D0E82E93D092
:10FCD000C115F0EEDF0718F4FE0117BFE895C12C3F
:10FCE000DD24D39488D0F60181936F01EE12FACF10
:10FCF000C115F0EEDF0718F0FE0117BFE8954CD1F3
:10FD000007B600FCFDCFFE01A0E0B1E08C9111969A
:10FD10002C91119790E0922B0C0107BFE8951124CC
:10FD200032961296A11582E0B80781F785E0FE01B0
:10FD300087BFE89507B600FCFDCFF7BEE8951DC06C
:10FD4000843769F458D057D0D82E55D025D1FE012C
:10FD50008791EF0149D0DA94D110F9CF0EC08537E1
:10FD600039F41AD18EE140D087E93ED085E089CFC1
:10FD7000813511F488E04DD00FD180E135D073CFBB
:10FD80008EBD0DB407FEFDCF8EB50895479885E072
:10FD9000F7DF80E0F5DF479A81700895CF93C82F91
:10FDA000662321F060E086E0F9DF479AEFDF8111FA
:10FDB000FDCF47988C2FCF91E3CFCF92DF92EF9278
:10FDC000FF926B017C0160E083E0E8DF8E2DD8DFDD
:10FDD0008D2DD6DF8C2DD4DF80E0D2DF479AFF90C7
:10FDE000EF90DF90CF9008959091C00095FFFCCFE9
:10FDF0008093C60008954F9A8091C00087FFFCCF82
:10FE00008091C00084FD01C0A8958091C6004F9AE2
:10FE10000895811103C094B7977F94BF98E19093A0
:10FE200060008093600008959F92AF92BF92CF923E
:10FE3000DF92EF92FF920F931F93CF93DF9380E0B7
:10FE4000E8DF3F9A84B1806B84B9479A2C9A8CB5CD
:10FE500080658CBD47988FE993DF80E091DF479AFA
:10FE600081508E3F08F08CC061E081E097DF80E038
:10FE700087DF479A60E070E0CB019FDF863409F0AE
:10FE80007FC061E070E080E090E097DF8C3409F0A3
:10FE900077C062E070E080E090E08FDF883509F0A5
:10FEA0006FC066E070E080E090E087DF8A3309F0A1
:10FEB00067C069E070E080E090E07FDF8A3309F09E
:10FEC0005FC067E070E080E090E077DFC82F68E017
:10FED00070E080E090E071DFD0E0DC2FCC27C82B11
:10FEE000C0FD4EC04F9AC12CD12C00E010E0BB24C5
:10FEF000B39483E0A82E95E0992E0C171D0748F5C2
:10FF0000B801665F7F4F80E090E057DFE82EF12C6C
:10FF1000B801655F7F4F80E090E04FDFF82AF8017D
:10FF20000701B7BEE89511240E5F1F4F002319F09B
:10FF3000C017D10711F7F601A7BEE89507B600FC78
:10FF4000FDCFF60197BEE89507B600FCFDCFD39430
:10FF5000D4CF4F9881E187BFE8952A9661E0C13000
:10FF6000D04810F482E501C088ED18DF80E008DF9A
:10FF700080E006DF80E004DF479A88E04ADFFFCFB9
:10FF8000DF91CF911F910F91FF90EF90DF90CF9075
:10FF9000BF90AF909F9008952EDF803219F088E0D7
:10FFA00038DFFFCF84E120CFCF93C82F24DFC150AB
:10FFB000E9F7CF91F1CF282E80E02BDFEE27FF2746
:02FFC0000994A2
:02FFFE000005FC
:040000031000FC00ED
:00000001FF
