:020000021000EC
:10FC0000112404B714BE01FD07C003FD28D18CB533
:10FC10008F7A8CBD802FE8D185E08093810082E0CF
:10FC20008093C00088E18093C10086E08093C20089
:10FC300080E18093C4008EE0FCD0579A86E020E3F8
:10FC40003CEF91E0309385002093840096BBB09BFD
:10FC5000FECF4F9AA8958150A9F7EE24FF24BB242C
:10FC6000B394A1E1CA2EF3E0DF2ED5D0813459F44C
:10FC7000D2D0082FE4D0023839F1013809F47FC01E
:10FC800083E0C1D083C0823411F484E103C08534A1
:10FC900019F485E0DCD07AC0853591F4BCD0082F0A
:10FCA00010E0B9D0E82EFF24FE2CEE24E02AF12A41
:10FCB0008F2D881F8827881F8BBFEE0CFF1C65C007
:10FCC000863521F484E0C3D080E0DBCF843609F0B0
:10FCD00041C0A1D0A0D0082F9ED080E0E81680EED1
:10FCE000F80618F4F701D7BEE895C0E0D1E093D04C
:10FCF00089930C17E1F7F0E0EF16F0EEFF0618F02D
:10FD0000F701D7BEE8959BD007B600FCFDCFA70151
:10FD1000A0E0B1E02C9130E011968C91119790E029
:10FD2000982F8827822B932B1296FA010C01B7BECD
:10FD3000E89511244E5F5F4FF2E0A030BF0751F706
:10FD400085E0F70187BFE89507B600FCFDCFC7BE89
:10FD5000E8951CC0843761F45ED05DD0082F5BD07D
:10FD60006ED0F70187917F014ED00150D1F70EC0C0
:10FD7000853739F464D08EE146D087E944D085E0F8
:10FD800080CF813511F488E054D059D080E13BD048
:10FD90006CCF8EBD0DB407FEFDCF8EB5089547988C
:10FDA00085E0F7DF80E0F5DF479A817008951F93C3
:10FDB000182F662321F086E060E0F9DF479AEFDF35
:10FDC0008823E9F74798812FE4DF1F910895EF9288
:10FDD000FF920F931F937B018C0183E060E0E7DFCC
:10FDE000C801AA27BB27D5DFBB27A12F902F8F2DB6
:10FDF000D0DF8E2DCEDF80E0CCDF479A1F910F91B0
:10FE0000FF90EF900895982F8091C00085FFFCCF60
:10FE10009093C60008954F9A8091C00087FFFCCF51
:10FE20008091C00084FD01C0A8958091C6004F9AC2
:10FE30000895E0E6F0E098E1908380830895EBDF99
:10FE4000803219F088E0F5DFFFCF84E1DCCF1F932B
:10FE5000182FE1DF1150E9F7F2DF1F9108959F920B
:10FE6000AF92BF92CF92DF92EF92FF920F931F93C8
:10FE7000CF93DF9380E0DDDF3F9A84B1806B84B95C
:10FE8000479A2C9A8CB580658CBD47988FE981DFA5
:10FE900080E07FDF479A81508E3F08F099C081E073
:10FEA00061E085DF80E075DF479A60E070E080E028
:10FEB00090E08DDF863409F08BC061E070E080E077
:10FEC00090E085DF8C3409F083C062E070E080E070
:10FED00090E07DDF883509F07BC066E070E080E06F
:10FEE00090E075DF8A3309F073C069E070E080E06C
:10FEF00090E06DDF8A3309F06BC067E070E080E06E
:10FF000090E065DF082F68E070E080E090E05FDF60
:10FF100010E0F02EEE2490E0E82AF92AE0FC58C028
:10FF20004F9AC0E0D0E0CC24DD249924939443E0A0
:10FF3000A42E35E0B32E2DC02A96BE0180E090E0BD
:10FF400046DF082F10E02196BE0180E090E02B975D
:10FF50003EDF90E0982F8827802B912BFE010C012B
:10FF600097BEE89511242296CC2319F0CE15DF0513
:10FF700081F4F601A7BEE89507B600FCFDCFF601B7
:10FF8000B7BEE89507B600FCFDCF80E091E0C80E53
:10FF9000D91ECE15DF0580F24F9881E187BFE89525
:10FFA000EAE0F0E0EE0EFF1EF1E0EF16F0E8FF06EB
:10FFB00010F482E501C088ED61E0F9DE80E0E9DE61
:10FFC00080E0E7DE80E0E5DE479A88E032DFFFCFC1
:10FFD000DF91CF911F910F91FF90EF90DF90CF9025
:10FFE000BF90AF909F900895282E80E022DFEE27EB
:04FFF000FF2709944A
:02FFFE000005FC
:040000031000FC00ED
:00000001FF
