:107C00001124C4B714BEC1FD07C0C3FD0AD18CB591
:107C10008F7A8CBD8C2FD0D185E08093810082E05B
:107C20008093C00088E18093C10086E08093C20009
:107C300080E18093C4008EE0E9D0219A86E020E3C1
:107C40003CEF91E0309385002093840096BBB09B7D
:107C5000FECF199AA8958150A9F7C0E0D0E001E0C5
:107C600025E0F22E31E1E32E13E0C2D0813471F42D
:107C7000BFD0D82E92D182E8D816F9F0E1E8DE1212
:107C800002C085E001C083E0ACD074C0823411F43E
:107C900084E103C0853419F485E087D16BC0853554
:107CA00041F4A6D0C82FA4D0D0E0D82BCC0FDD1F34
:107CB00060C0863521F484E078D180E0E5CF843659
:107CC00009F03BC095D094D0B82E92D0C115F0E702
:107CD000DF0718F4FE0117BFE895C12CDD24D3940B
:107CE00087D0F60181936F01BE12FACFC115F0E77C
:107CF000DF0718F0FE0117BFE8954FD107B600FC6B
:107D0000FDCFFE01A0E0B1E08C9111962C9111976E
:107D100090E0922B0C0107BFE89511243296129641
:107D2000A03881E0B80781F7FE01F7BEE89507B6F5
:107D300000FCFDCFE7BEE8951DC0843769F458D03C
:107D400057D0D82E55D029D1FE018591EF0149D0C9
:107D5000DA94D110F9CF0EC0853739F41ED18EE1F7
:107D600040D085E93ED08FE08FCF813511F488E097
:107D70004DD013D180E135D078CF8EBD0DB407FE44
:107D8000FDCF8EB50895289885E0F7DF80E0F5DF18
:107D9000289A81700895CF93C82F662321F060E060
:107DA00086E0F9DF289AEFDF8111FDCF28988C2F2C
:107DB000CF91E3CFCF92DF92EF92FF926B017C01E4
:107DC00060E083E0E8DF8E2DD8DF8D2DD6DF8C2DAF
:107DD000D4DF80E0D2DF289AFF90EF90DF90CF9041
:107DE00008959091C00095FFFCCF8093C600089540
:107DF000199A8091C00087FFFCCF8091C00084FD5C
:107E000001C0A8958091C600199A0895811103C0F8
:107E100094B7977F94BF98E190936000809360003F
:107E200008959F92AF92BF92CF92DF92EF92FF920E
:107E30000F931F93CF93DF9380E0E8DF84B18D62CF
:107E400084B9289A2A9A8CB580658CBD28988FE9C8
:107E500094DF80E092DF289A81508E3F08F091C035
:107E600061E081E098DF80E088DF289A60E070E0E0
:107E7000CB01A0DF863409F084C061E070E080E0CF
:107E800090E098DF8C3409F07CC062E070E080E024
:107E900090E090DF883509F074C066E070E080E023
:107EA00090E088DF8A3309F06CC069E070E080E020
:107EB00090E080DF8A3309F064C067E070E080E022
:107EC00090E078DFC82F68E070E080E090E072DF3B
:107ED000D0E0DC2FCC27C82BC0FD53C0199AC12C91
:107EE000D12C00E010E0BB24B39483E0A82E95E0F1
:107EF000992E0C171D0770F5B801665F7F4F80E063
:107F000090E058DFE82EF12CB801655F7F4F80E0EC
:107F100090E050DFF82AF8010701B7BEE895112478
:107F20000E5F1F4FC8018F779927892B19F0C01753
:107F3000D107F9F6F601A7BEE89507B600FCFDCF1C
:107F4000F60197BEE89507B600FCFDCFF0E8CF0E2E
:107F5000D11CCFCF199881E187BFE8952A9661E0BF
:107F6000C130D04810F482E501C088ED14DF80E014
:107F700004DF80E002DF80E000DF289A88E046DF4F
:107F8000FFCFDF91CF911F910F91FF90EF90DF9086
:107F9000CF90BF90AF909F9008952ADF803219F064
:107FA00088E034DFFFCF84E11CCFCF93C82F20DFE0
:107FB000C150E9F7CF91F1CF282E80E027DFEE27DF
:047FC000FF270994FA
:027FFE0000057C
:0400000300007C007D
:00000001FF
