:107C0000112482E08093C00088E18093C10086E067
:107C10008093C20080E18093C40084B714BE81FDCC
:107C200003C083FD21D1D3D185E0809381008EE014
:107C300005D1219A86E020E33CEF91E03093850066
:107C40002093840096BBB09BFECF199AA8958150D3
:107C5000A9F7CC24DD2488248394B5E0AB2EA1E1E0
:107C60009A2EF3E0BF2EDCD0813461F4D9D0082FF6
:107C7000EBD0023811F0013811F484E001C083E048
:107C8000C7D089C0823411F484E103C0853419F46B
:107C900085E0E2D080C0853579F4C2D0E82EFF249B
:107CA000BFD0082F10E0102F00270E291F29000F2A
:107CB000111FCAD068016FC0863521F484E0CCD092
:107CC00080E0DECF843609F040C0AAD0A9D0082FCA
:107CD000A7D080E0C81680E7D80618F4F601B7BE32
:107CE000E895C0E0D1E09CD089930C17E1F7F0E073
:107CF000CF16F0E7DF0618F0F601B7BEE895A4D07E
:107D000007B600FCFDCFA601A0E0B1E02C9130E069
:107D100011968C91119790E0982F8827822B932BA6
:107D20001296FA010C0187BEE89511244E5F5F4F51
:107D3000F1E0A038BF0751F7F601A7BEE89507B6F6
:107D400000FCFDCF97BEE89526C08437B1F468D01B
:107D500067D0F82E65D078D0F601EF2C8F010F5F39
:107D60001F4F849155D0EA94F801C1F70894C11CC3
:107D7000D11CFA94CF0CD11C0EC0853739F464D0D5
:107D80008EE146D085E944D08FE07ACF813511F479
:107D900088E054D059D080E13BD065CF8EBD0DB482
:107DA00007FEFDCF8EB50895289885E0F7DF80E0C7
:107DB000F5DF289A817008951F93182F662321F00C
:107DC00086E060E0F9DF289AEFDF8823E9F728985A
:107DD000812FE4DF1F910895EF92FF920F931F937D
:107DE0007B018C0183E060E0E7DFC801AA27BB27A5
:107DF000D5DFBB27A12F902F8F2DD0DF8E2DCEDF8B
:107E000080E0CCDF289A1F910F91FF90EF900895AA
:107E1000982F8091C00085FFFCCF9093C6000895F5
:107E2000199A8091C00087FFFCCF8091C00084FD2B
:107E300001C0A8958091C600199A0895E0E6F0E087
:107E400098E1908380830895EBDF803219F088E019
:107E5000F5DFFFCF84E1DCCF1F93182FE1DF115056
:107E6000E9F7F2DF1F9108959F92AF92BF92CF92F0
:107E7000DF92EF92FF920F931F93CF93DF9380E0F7
:107E8000DDDF84B18D6284B9289A1A9A8CB5806539
:107E90008CBD81E061E090DF80E080DF289A60E0C7
:107EA00070E080E090E098DF863409F084C061E003
:107EB00070E080E090E090DF8C3409F07CC062E0FC
:107EC00070E080E090E088DF883509F074C066E0FB
:107ED00070E080E090E080DF8A3309F06CC069E0F8
:107EE00070E080E090E078DF8A3309F064C067E0FA
:107EF00070E080E090E070DF082F68E070E080E0E4
:107F000090E06ADF10E0F02EEE2490E0E82AF92AF3
:107F1000E0FC51C0199AC0E0D0E0CC24DD249924C3
:107F2000939443E0A42E35E0B32E30C02A96BE01D0
:107F300080E090E051DF082F10E02196BE0180E044
:107F400090E02B9749DF90E0982F8827802B912B8A
:107F5000FE010C0197BEE89511242296CE018F7781
:107F60009070892B19F0CE15DF0581F4F601A7BEBC
:107F7000E89507B600FCFDCFF601B7BEE89507B659
:107F800000FCFDCF80E890E0C80ED91ECE15DF05BD
:107F900008F4CCCF199881E187BFE89582E561E0CC
:107FA0000BDF80E0FBDE80E0F9DE80E0F7DE289A80
:107FB00088E044DFFFCFDF91CF911F910F91FF90B9
:107FC000EF90DF90CF90BF90AF909F90089580E0AA
:087FD00035DFEE27FF270994BD
:027FFE00040479
:0400000300007C007D
:00000001FF
