:107C00001124C4B714BEC1FD07C0C3FDF3D08CB5A9
:107C10008F7A8CBD8C2FDFD185E08093810082E04C
:107C20008093C00088E18093C10096E09093C200E9
:107C30009CE09093C400809360008EE0809360008D
:107C4000219A86E024E23DEF91E030938500209375
:107C5000840096BBB09BFECF199AA8958150A9F7D6
:107C6000C0E0D0E008E128E0F22EEE24E39435E015
:107C7000D32E41E1C42E13E087D1813471F484D135
:107C8000B82E90D182E8B816F9F0E1E8BE1202C031
:107C900085E001C083E071D176C0823411F484E1C3
:107CA00003C0853419F485E089D16DC0853541F470
:107CB0006BD1C82F69D1D0E0D82BCC0FDD1F62C0AB
:107CC000863521F484E07AD180E0E5CF843609F06E
:107CD0003BC05AD159D1982E57D1C115F0E7DF07D3
:107CE00018F4FE0117BFE895A12CBB24B3944CD126
:107CF000F50181935F019E12FACFC115F0E7DF070E
:107D000018F0FE0117BFE8954DD107B600FCFDCF76
:107D1000FE01A0E0B1E08C9111962C91119790E0BA
:107D2000922B0C01E7BEE895112432961296A038EA
:107D300081E0B80781F7FE01D7BEE89507B600FCE1
:107D4000FDCFC7BEE8951FC0843769F41DD11CD193
:107D5000B82E1AD127D1FE018591EF010ED1BA9428
:107D6000B110F9CF10C0853739F41CD18EE105D19F
:107D700085E903D18FE08FCF813521F40093600036
:107D8000F09260000FD180E1F8D076CF8EBD0DB4B7
:107D900007FEFDCF8EB50895289885E0F7DF80E0D7
:107DA000F5DF289A81700895CF93C82F662321F0BC
:107DB00060E086E0F9DF289AEFDF8111FDCF289897
:107DC0008C2FCF91E3CFCF92DF92EF92FF926B0196
:107DD0007C0160E083E0E8DF8E2DD8DF8D2DD6DFDB
:107DE0008C2DD4DF80E0D2DF289AFF90EF90DF90D7
:107DF000CF9008959F92AF92BF92CF92DF92EF9271
:107E0000FF920F931F93CF93DF9388E180936000DD
:107E10001092600084B18D6284B9289A2A9A8CB538
:107E200080658CBD28988FE9B1DF80E0AFDF289AAC
:107E300081508E3F08F095C061E081E0B5DF80E0C1
:107E4000A5DF289A60E070E0CB01BDDF863409F041
:107E500088C061E070E080E090E0B5DF8C3409F02C
:107E600080C062E070E080E090E0ADDF883509F02E
:107E700078C066E070E080E090E0A5DF8A3309F02A
:107E800070C069E070E080E090E09DDF8A3309F027
:107E900068C067E070E080E090E095DFC82F68E0A0
:107EA00070E080E090E08FDFD0E0DC2FCC27C82BA3
:107EB000C0FD57C0199AC12CD12C00E010E0BB24A2
:107EC000B39483E0A82E95E0992E0C171D0770F54A
:107ED000B801665F7F4F80E090E075DFE82EF12CFF
:107EE000B801655F7F4F80E090E06DDFF82AF80110
:107EF0000701B7BEE89511240E5F1F4FC8018F77A9
:107F00009927892B19F0C017D107F9F6F601A7BEFA
:107F1000E89507B600FCFDCFF60197BEE89507B6D9
:107F200000FCFDCFF0E8CF0ED11CCFCF199881E136
:107F300087BFE8952A9661E0C130D04810F482E509
:107F400001C088ED31DF80E021DF80E01FDF80E0CD
:107F50001DDF289A88E18093600088E080936000AC
:107F6000FFCFDF91CF911F910F91FF90EF90DF90A6
:107F7000CF90BF90AF909F9008959091C00095FFD3
:107F8000FCCF8093C6000895199A8091C00087FFA6
:107F9000FCCF8091C00084FD01C0A8958091C600EF
:107FA000199A0895F1DF803239F088E180936000FA
:107FB00088E080936000FFCF84E1DFCFCF93C82FAC
:107FC000E3DFC150E9F7CF91EDCFE0E6F0E098E1D3
:107FD000908380830895282EE0E6F0E088E1808396
:087FE0001082EE27FF2709942F
:027FFE0000057C
:0400000300007C007D
:00000001FF
